{
  "_format": "hh-sol-artifact-1",
  "contractName": "ICO",
  "sourceName": "contracts/ICO.sol",
  "abi": [
    {
      "anonymous": false,
      "inputs": [
        {
          "indexed": true,
          "internalType": "address",
          "name": "owner",
          "type": "address"
        },
        {
          "indexed": true,
          "internalType": "address",
          "name": "spender",
          "type": "address"
        },
        {
          "indexed": false,
          "internalType": "uint256",
          "name": "value",
          "type": "uint256"
        }
      ],
      "name": "Approval",
      "type": "event"
    },
    {
      "anonymous": false,
      "inputs": [
        {
          "indexed": true,
          "internalType": "address",
          "name": "previousOwner",
          "type": "address"
        },
        {
          "indexed": true,
          "internalType": "address",
          "name": "newOwner",
          "type": "address"
        }
      ],
      "name": "OwnershipTransferred",
      "type": "event"
    },
    {
      "anonymous": false,
      "inputs": [
        {
          "indexed": true,
          "internalType": "address",
          "name": "from",
          "type": "address"
        },
        {
          "indexed": true,
          "internalType": "address",
          "name": "to",
          "type": "address"
        },
        {
          "indexed": false,
          "internalType": "uint256",
          "name": "value",
          "type": "uint256"
        }
      ],
      "name": "Transfer",
      "type": "event"
    },
    {
      "inputs": [
        {
          "internalType": "address",
          "name": "owner",
          "type": "address"
        },
        {
          "internalType": "address",
          "name": "spender",
          "type": "address"
        }
      ],
      "name": "allowance",
      "outputs": [
        {
          "internalType": "uint256",
          "name": "",
          "type": "uint256"
        }
      ],
      "stateMutability": "view",
      "type": "function"
    },
    {
      "inputs": [
        {
          "internalType": "address",
          "name": "spender",
          "type": "address"
        },
        {
          "internalType": "uint256",
          "name": "amount",
          "type": "uint256"
        }
      ],
      "name": "approve",
      "outputs": [
        {
          "internalType": "bool",
          "name": "",
          "type": "bool"
        }
      ],
      "stateMutability": "nonpayable",
      "type": "function"
    },
    {
      "inputs": [
        {
          "internalType": "address",
          "name": "account",
          "type": "address"
        }
      ],
      "name": "balanceOf",
      "outputs": [
        {
          "internalType": "uint256",
          "name": "",
          "type": "uint256"
        }
      ],
      "stateMutability": "view",
      "type": "function"
    },
    {
      "inputs": [
        {
          "internalType": "address",
          "name": "",
          "type": "address"
        }
      ],
      "name": "balances",
      "outputs": [
        {
          "internalType": "uint256",
          "name": "",
          "type": "uint256"
        }
      ],
      "stateMutability": "view",
      "type": "function"
    },
    {
      "inputs": [],
      "name": "buyTokens",
      "outputs": [],
      "stateMutability": "payable",
      "type": "function"
    },
    {
      "inputs": [],
      "name": "decimals",
      "outputs": [
        {
          "internalType": "uint8",
          "name": "",
          "type": "uint8"
        }
      ],
      "stateMutability": "view",
      "type": "function"
    },
    {
      "inputs": [
        {
          "internalType": "address",
          "name": "spender",
          "type": "address"
        },
        {
          "internalType": "uint256",
          "name": "subtractedValue",
          "type": "uint256"
        }
      ],
      "name": "decreaseAllowance",
      "outputs": [
        {
          "internalType": "bool",
          "name": "",
          "type": "bool"
        }
      ],
      "stateMutability": "nonpayable",
      "type": "function"
    },
    {
      "inputs": [],
      "name": "finalSaleTokenValue",
      "outputs": [
        {
          "internalType": "uint256",
          "name": "",
          "type": "uint256"
        }
      ],
      "stateMutability": "view",
      "type": "function"
    },
    {
      "inputs": [],
      "name": "finalSaleTokens",
      "outputs": [
        {
          "internalType": "uint256",
          "name": "",
          "type": "uint256"
        }
      ],
      "stateMutability": "view",
      "type": "function"
    },
    {
      "inputs": [
        {
          "internalType": "uint256",
          "name": "_finalSaleTokenValue",
          "type": "uint256"
        }
      ],
      "name": "getFinalSaleTokenValue",
      "outputs": [],
      "stateMutability": "nonpayable",
      "type": "function"
    },
    {
      "inputs": [
        {
          "internalType": "address",
          "name": "spender",
          "type": "address"
        },
        {
          "internalType": "uint256",
          "name": "addedValue",
          "type": "uint256"
        }
      ],
      "name": "increaseAllowance",
      "outputs": [
        {
          "internalType": "bool",
          "name": "",
          "type": "bool"
        }
      ],
      "stateMutability": "nonpayable",
      "type": "function"
    },
    {
      "inputs": [],
      "name": "manager",
      "outputs": [
        {
          "internalType": "address",
          "name": "",
          "type": "address"
        }
      ],
      "stateMutability": "view",
      "type": "function"
    },
    {
      "inputs": [],
      "name": "name",
      "outputs": [
        {
          "internalType": "string",
          "name": "",
          "type": "string"
        }
      ],
      "stateMutability": "view",
      "type": "function"
    },
    {
      "inputs": [],
      "name": "numberOfTokens",
      "outputs": [
        {
          "internalType": "uint256",
          "name": "",
          "type": "uint256"
        }
      ],
      "stateMutability": "view",
      "type": "function"
    },
    {
      "inputs": [],
      "name": "owner",
      "outputs": [
        {
          "internalType": "address",
          "name": "",
          "type": "address"
        }
      ],
      "stateMutability": "view",
      "type": "function"
    },
    {
      "inputs": [],
      "name": "preSaleTokens",
      "outputs": [
        {
          "internalType": "uint256",
          "name": "",
          "type": "uint256"
        }
      ],
      "stateMutability": "view",
      "type": "function"
    },
    {
      "inputs": [],
      "name": "renounceOwnership",
      "outputs": [],
      "stateMutability": "nonpayable",
      "type": "function"
    },
    {
      "inputs": [],
      "name": "seedSaleTokens",
      "outputs": [
        {
          "internalType": "uint256",
          "name": "",
          "type": "uint256"
        }
      ],
      "stateMutability": "view",
      "type": "function"
    },
    {
      "inputs": [
        {
          "internalType": "uint256",
          "name": "_stage",
          "type": "uint256"
        }
      ],
      "name": "setCrowdsaleStage",
      "outputs": [],
      "stateMutability": "nonpayable",
      "type": "function"
    },
    {
      "inputs": [],
      "name": "stage",
      "outputs": [
        {
          "internalType": "enum ICO.CrowdsaleStage",
          "name": "",
          "type": "uint8"
        }
      ],
      "stateMutability": "view",
      "type": "function"
    },
    {
      "inputs": [],
      "name": "symbol",
      "outputs": [
        {
          "internalType": "string",
          "name": "",
          "type": "string"
        }
      ],
      "stateMutability": "view",
      "type": "function"
    },
    {
      "inputs": [],
      "name": "tokensForSale",
      "outputs": [
        {
          "internalType": "uint256",
          "name": "",
          "type": "uint256"
        }
      ],
      "stateMutability": "view",
      "type": "function"
    },
    {
      "inputs": [],
      "name": "tokensPerEther",
      "outputs": [
        {
          "internalType": "uint256",
          "name": "",
          "type": "uint256"
        }
      ],
      "stateMutability": "view",
      "type": "function"
    },
    {
      "inputs": [],
      "name": "tokensSold",
      "outputs": [
        {
          "internalType": "uint256",
          "name": "",
          "type": "uint256"
        }
      ],
      "stateMutability": "view",
      "type": "function"
    },
    {
      "inputs": [],
      "name": "totalSupply",
      "outputs": [
        {
          "internalType": "uint256",
          "name": "",
          "type": "uint256"
        }
      ],
      "stateMutability": "view",
      "type": "function"
    },
    {
      "inputs": [
        {
          "internalType": "address",
          "name": "to",
          "type": "address"
        },
        {
          "internalType": "uint256",
          "name": "amount",
          "type": "uint256"
        }
      ],
      "name": "transfer",
      "outputs": [
        {
          "internalType": "bool",
          "name": "",
          "type": "bool"
        }
      ],
      "stateMutability": "nonpayable",
      "type": "function"
    },
    {
      "inputs": [
        {
          "internalType": "address",
          "name": "from",
          "type": "address"
        },
        {
          "internalType": "address",
          "name": "to",
          "type": "address"
        },
        {
          "internalType": "uint256",
          "name": "amount",
          "type": "uint256"
        }
      ],
      "name": "transferFrom",
      "outputs": [
        {
          "internalType": "bool",
          "name": "",
          "type": "bool"
        }
      ],
      "stateMutability": "nonpayable",
      "type": "function"
    },
    {
      "inputs": [
        {
          "internalType": "address",
          "name": "newOwner",
          "type": "address"
        }
      ],
      "name": "transferOwnership",
      "outputs": [],
      "stateMutability": "nonpayable",
      "type": "function"
    }
  ],
  "bytecode": "0x60806040526000600660146101000a81548160ff0219169083600281111562000051577f4e487b7100000000000000000000000000000000000000000000000000000000600052602160045260246000fd5b02179055506a295be96e640669720000006007556a18d0bf423c03d8de0000006008556a108b2a2c2802909400000060095562030d40600c55600754600e553480156200009d57600080fd5b506040518060400160405280600b81526020017f4a616774617020436f696e0000000000000000000000000000000000000000008152506040518060400160405280600581526020017f4a4147475500000000000000000000000000000000000000000000000000000081525081600390805190602001906200012292919062000435565b5080600490805190602001906200013b92919062000435565b50505033600560006101000a81548173ffffffffffffffffffffffffffffffffffffffff021916908373ffffffffffffffffffffffffffffffffffffffff160217905550620001be600560009054906101000a900473ffffffffffffffffffffffffffffffffffffffff166a52b7d2dcc80cd2e4000000620001e460201b60201c565b620001de620001d26200035d60201b60201c565b6200036560201b60201c565b62000691565b600073ffffffffffffffffffffffffffffffffffffffff168273ffffffffffffffffffffffffffffffffffffffff16141562000257576040517f08c379a00000000000000000000000000000000000000000000000000000000081526004016200024e906200051d565b60405180910390fd5b6200026b600083836200042b60201b60201c565b80600260008282546200027f91906200056d565b92505081905550806000808473ffffffffffffffffffffffffffffffffffffffff1673ffffffffffffffffffffffffffffffffffffffff1681526020019081526020016000206000828254620002d691906200056d565b925050819055508173ffffffffffffffffffffffffffffffffffffffff16600073ffffffffffffffffffffffffffffffffffffffff167fddf252ad1be2c89b69c2b068fc378daa952ba7f163c4a11628f55a4df523b3ef836040516200033d91906200053f565b60405180910390a362000359600083836200043060201b60201c565b5050565b600033905090565b6000600660009054906101000a900473ffffffffffffffffffffffffffffffffffffffff16905081600660006101000a81548173ffffffffffffffffffffffffffffffffffffffff021916908373ffffffffffffffffffffffffffffffffffffffff1602179055508173ffffffffffffffffffffffffffffffffffffffff168173ffffffffffffffffffffffffffffffffffffffff167f8be0079c531659141344cd1fd0a4f28419497f9722a3daafe3b4186f6b6457e060405160405180910390a35050565b505050565b505050565b8280546200044390620005d4565b90600052602060002090601f016020900481019282620004675760008555620004b3565b82601f106200048257805160ff1916838001178555620004b3565b82800160010185558215620004b3579182015b82811115620004b257825182559160200191906001019062000495565b5b509050620004c29190620004c6565b5090565b5b80821115620004e1576000816000905550600101620004c7565b5090565b6000620004f4601f836200055c565b9150620005018262000668565b602082019050919050565b6200051781620005ca565b82525050565b600060208201905081810360008301526200053881620004e5565b9050919050565b60006020820190506200055660008301846200050c565b92915050565b600082825260208201905092915050565b60006200057a82620005ca565b91506200058783620005ca565b9250827fffffffffffffffffffffffffffffffffffffffffffffffffffffffffffffffff03821115620005bf57620005be6200060a565b5b828201905092915050565b6000819050919050565b60006002820490506001821680620005ed57607f821691505b6020821081141562000604576200060362000639565b5b50919050565b7f4e487b7100000000000000000000000000000000000000000000000000000000600052601160045260246000fd5b7f4e487b7100000000000000000000000000000000000000000000000000000000600052602260045260246000fd5b7f45524332303a206d696e7420746f20746865207a65726f206164647265737300600082015250565b6122d880620006a16000396000f3fe6080604052600436106101b75760003560e01c8063715018a6116100ec578063d0febe4c1161008a578063f19c31b111610064578063f19c31b11461061d578063f2fde38b14610646578063f856d6051461066f578063f9f16ef21461069a576101b7565b8063d0febe4c146105ab578063dd62ed3e146105b5578063e0e7d57c146105f2576101b7565b8063a457c2d7116100c6578063a457c2d7146104dd578063a9059cbb1461051a578063a997f82f14610557578063c040e6b814610580576101b7565b8063715018a6146104705780638da5cb5b1461048757806395d89b41146104b2576101b7565b8063313ce5671161015957806343335b291161013357806343335b29146103b2578063481c6a75146103dd578063518ab2a81461040857806370a0823114610433576101b7565b8063313ce5671461031f578063395093511461034a578063421cdde614610387576101b7565b806312aef8c31161019557806312aef8c31461024f57806318160ddd1461027a57806323b872dd146102a557806327e235e3146102e2576101b7565b806306fdde03146101bc578063095ea7b3146101e75780630fe83bb814610224575b600080fd5b3480156101c857600080fd5b506101d16106c5565b6040516101de9190611ba7565b60405180910390f35b3480156101f357600080fd5b5061020e6004803603810190610209919061190f565b610757565b60405161021b9190611b71565b60405180910390f35b34801561023057600080fd5b5061023961077a565b6040516102469190611d09565b60405180910390f35b34801561025b57600080fd5b50610264610780565b6040516102719190611d09565b60405180910390f35b34801561028657600080fd5b5061028f610786565b60405161029c9190611d09565b60405180910390f35b3480156102b157600080fd5b506102cc60048036038101906102c791906118c0565b610790565b6040516102d99190611b71565b60405180910390f35b3480156102ee57600080fd5b506103096004803603810190610304919061185b565b6107bf565b6040516103169190611d09565b60405180910390f35b34801561032b57600080fd5b506103346107d7565b6040516103419190611d24565b60405180910390f35b34801561035657600080fd5b50610371600480360381019061036c919061190f565b6107e0565b60405161037e9190611b71565b60405180910390f35b34801561039357600080fd5b5061039c610817565b6040516103a99190611d09565b60405180910390f35b3480156103be57600080fd5b506103c761081d565b6040516103d49190611d09565b60405180910390f35b3480156103e957600080fd5b506103f2610823565b6040516103ff9190611b56565b60405180910390f35b34801561041457600080fd5b5061041d610849565b60405161042a9190611d09565b60405180910390f35b34801561043f57600080fd5b5061045a6004803603810190610455919061185b565b61084f565b6040516104679190611d09565b60405180910390f35b34801561047c57600080fd5b50610485610897565b005b34801561049357600080fd5b5061049c61091f565b6040516104a99190611b56565b60405180910390f35b3480156104be57600080fd5b506104c7610949565b6040516104d49190611ba7565b60405180910390f35b3480156104e957600080fd5b5061050460048036038101906104ff919061190f565b6109db565b6040516105119190611b71565b60405180910390f35b34801561052657600080fd5b50610541600480360381019061053c919061190f565b610a52565b60405161054e9190611b71565b60405180910390f35b34801561056357600080fd5b5061057e6004803603810190610579919061194b565b610a75565b005b34801561058c57600080fd5b50610595610e92565b6040516105a29190611b8c565b60405180910390f35b6105b3610ea5565b005b3480156105c157600080fd5b506105dc60048036038101906105d79190611884565b61106a565b6040516105e99190611d09565b60405180910390f35b3480156105fe57600080fd5b506106076110f1565b6040516106149190611d09565b60405180910390f35b34801561062957600080fd5b50610644600480360381019061063f919061194b565b6110f7565b005b34801561065257600080fd5b5061066d6004803603810190610668919061185b565b61117d565b005b34801561067b57600080fd5b50610684611275565b6040516106919190611d09565b60405180910390f35b3480156106a657600080fd5b506106af61127b565b6040516106bc9190611d09565b60405180910390f35b6060600380546106d490611eec565b80601f016020809104026020016040519081016040528092919081815260200182805461070090611eec565b801561074d5780601f106107225761010080835404028352916020019161074d565b820191906000526020600020905b81548152906001019060200180831161073057829003601f168201915b5050505050905090565b600080610762611281565b905061076f818585611289565b600191505092915050565b60075481565b600e5481565b6000600254905090565b60008061079b611281565b90506107a8858285611454565b6107b38585856114e0565b60019150509392505050565b600f6020528060005260406000206000915090505481565b60006012905090565b6000806107eb611281565b905061080c8185856107fd858961106a565b6108079190611d5b565b611289565b600191505092915050565b60095481565b600a5481565b600560009054906101000a900473ffffffffffffffffffffffffffffffffffffffff1681565b600d5481565b60008060008373ffffffffffffffffffffffffffffffffffffffff1673ffffffffffffffffffffffffffffffffffffffff168152602001908152602001600020549050919050565b61089f611281565b73ffffffffffffffffffffffffffffffffffffffff166108bd61091f565b73ffffffffffffffffffffffffffffffffffffffff1614610913576040517f08c379a000000000000000000000000000000000000000000000000000000000815260040161090a90611c89565b60405180910390fd5b61091d6000611761565b565b6000600660009054906101000a900473ffffffffffffffffffffffffffffffffffffffff16905090565b60606004805461095890611eec565b80601f016020809104026020016040519081016040528092919081815260200182805461098490611eec565b80156109d15780601f106109a6576101008083540402835291602001916109d1565b820191906000526020600020905b8154815290600101906020018083116109b457829003601f168201915b5050505050905090565b6000806109e6611281565b905060006109f4828661106a565b905083811015610a39576040517f08c379a0000000000000000000000000000000000000000000000000000000008152600401610a3090611ce9565b60405180910390fd5b610a468286868403611289565b60019250505092915050565b600080610a5d611281565b9050610a6a8185856114e0565b600191505092915050565b610a7d611281565b73ffffffffffffffffffffffffffffffffffffffff16610a9b61091f565b73ffffffffffffffffffffffffffffffffffffffff1614610af1576040517f08c379a0000000000000000000000000000000000000000000000000000000008152600401610ae890611c89565b60405180910390fd5b8060006002811115610b2c577f4e487b7100000000000000000000000000000000000000000000000000000000600052602160045260246000fd5b1415610b88576000600660146101000a81548160ff02191690836002811115610b7e577f4e487b7100000000000000000000000000000000000000000000000000000000600052602160045260246000fd5b0217905550610cb3565b8060016002811115610bc3577f4e487b7100000000000000000000000000000000000000000000000000000000600052602160045260246000fd5b1415610c1f576001600660146101000a81548160ff02191690836002811115610c15577f4e487b7100000000000000000000000000000000000000000000000000000000600052602160045260246000fd5b0217905550610cb2565b80600280811115610c59577f4e487b7100000000000000000000000000000000000000000000000000000000600052602160045260246000fd5b1415610cb1576002600660146101000a81548160ff02191690836002811115610cab577f4e487b7100000000000000000000000000000000000000000000000000000000600052602160045260246000fd5b02179055505b5b5b60006002811115610ced577f4e487b7100000000000000000000000000000000000000000000000000000000600052602160045260246000fd5b600660149054906101000a900460ff166002811115610d35577f4e487b7100000000000000000000000000000000000000000000000000000000600052602160045260246000fd5b1415610d535762030d40600c81905550600754600e81905550610e8f565b60016002811115610d8d577f4e487b7100000000000000000000000000000000000000000000000000000000600052602160045260246000fd5b600660149054906101000a900460ff166002811115610dd5577f4e487b7100000000000000000000000000000000000000000000000000000000600052602160045260246000fd5b1415610df357620186a0600c81905550600854600e81905550610e8e565b600280811115610e2c577f4e487b7100000000000000000000000000000000000000000000000000000000600052602160045260246000fd5b600660149054906101000a900460ff166002811115610e74577f4e487b7100000000000000000000000000000000000000000000000000000000600052602160045260246000fd5b1415610e8d57600a54600c81905550600954600e819055505b5b5b50565b600660149054906101000a900460ff1681565b6000341415610ee9576040517f08c379a0000000000000000000000000000000000000000000000000000000008152600401610ee090611c69565b60405180910390fd5b6a295be96e64066972000000600d541415610f0d57610f086001610a75565b610f2e565b6a422ca8b0a00a4250000000600d541415610f2d57610f2c6002610a75565b5b5b600c5434610f3c9190611db1565b600b81905550600b54600d6000828254610f569190611d5b565b92505081905550600b54600e6000828254610f719190611e0b565b92505081905550600b54600f60003373ffffffffffffffffffffffffffffffffffffffff1673ffffffffffffffffffffffffffffffffffffffff1681526020019081526020016000206000828254610fc99190611d5b565b92505081905550610fff600560009054906101000a900473ffffffffffffffffffffffffffffffffffffffff1633600b546114e0565b600560009054906101000a900473ffffffffffffffffffffffffffffffffffffffff1673ffffffffffffffffffffffffffffffffffffffff166108fc349081150290604051600060405180830381858888f19350505050158015611067573d6000803e3d6000fd5b50565b6000600160008473ffffffffffffffffffffffffffffffffffffffff1673ffffffffffffffffffffffffffffffffffffffff16815260200190815260200160002060008373ffffffffffffffffffffffffffffffffffffffff1673ffffffffffffffffffffffffffffffffffffffff16815260200190815260200160002054905092915050565b60085481565b6110ff611281565b73ffffffffffffffffffffffffffffffffffffffff1661111d61091f565b73ffffffffffffffffffffffffffffffffffffffff1614611173576040517f08c379a000000000000000000000000000000000000000000000000000000000815260040161116a90611c89565b60405180910390fd5b80600a8190555050565b611185611281565b73ffffffffffffffffffffffffffffffffffffffff166111a361091f565b73ffffffffffffffffffffffffffffffffffffffff16146111f9576040517f08c379a00000000000000000000000000000000000000000000000000000000081526004016111f090611c89565b60405180910390fd5b600073ffffffffffffffffffffffffffffffffffffffff168173ffffffffffffffffffffffffffffffffffffffff161415611269576040517f08c379a000000000000000000000000000000000000000000000000000000000815260040161126090611be9565b60405180910390fd5b61127281611761565b50565b600c5481565b600b5481565b600033905090565b600073ffffffffffffffffffffffffffffffffffffffff168373ffffffffffffffffffffffffffffffffffffffff1614156112f9576040517f08c379a00000000000000000000000000000000000000000000000000000000081526004016112f090611cc9565b60405180910390fd5b600073ffffffffffffffffffffffffffffffffffffffff168273ffffffffffffffffffffffffffffffffffffffff161415611369576040517f08c379a000000000000000000000000000000000000000000000000000000000815260040161136090611c09565b60405180910390fd5b80600160008573ffffffffffffffffffffffffffffffffffffffff1673ffffffffffffffffffffffffffffffffffffffff16815260200190815260200160002060008473ffffffffffffffffffffffffffffffffffffffff1673ffffffffffffffffffffffffffffffffffffffff168152602001908152602001600020819055508173ffffffffffffffffffffffffffffffffffffffff168373ffffffffffffffffffffffffffffffffffffffff167f8c5be1e5ebec7d5bd14f71427d1e84f3dd0314c0f7b2291e5b200ac8c7c3b925836040516114479190611d09565b60405180910390a3505050565b6000611460848461106a565b90507fffffffffffffffffffffffffffffffffffffffffffffffffffffffffffffffff81146114da57818110156114cc576040517f08c379a00000000000000000000000000000000000000000000000000000000081526004016114c390611c29565b60405180910390fd5b6114d98484848403611289565b5b50505050565b600073ffffffffffffffffffffffffffffffffffffffff168373ffffffffffffffffffffffffffffffffffffffff161415611550576040517f08c379a000000000000000000000000000000000000000000000000000000000815260040161154790611ca9565b60405180910390fd5b600073ffffffffffffffffffffffffffffffffffffffff168273ffffffffffffffffffffffffffffffffffffffff1614156115c0576040517f08c379a00000000000000000000000000000000000000000000000000000000081526004016115b790611bc9565b60405180910390fd5b6115cb838383611827565b60008060008573ffffffffffffffffffffffffffffffffffffffff1673ffffffffffffffffffffffffffffffffffffffff16815260200190815260200160002054905081811015611651576040517f08c379a000000000000000000000000000000000000000000000000000000000815260040161164890611c49565b60405180910390fd5b8181036000808673ffffffffffffffffffffffffffffffffffffffff1673ffffffffffffffffffffffffffffffffffffffff16815260200190815260200160002081905550816000808573ffffffffffffffffffffffffffffffffffffffff1673ffffffffffffffffffffffffffffffffffffffff16815260200190815260200160002060008282546116e49190611d5b565b925050819055508273ffffffffffffffffffffffffffffffffffffffff168473ffffffffffffffffffffffffffffffffffffffff167fddf252ad1be2c89b69c2b068fc378daa952ba7f163c4a11628f55a4df523b3ef846040516117489190611d09565b60405180910390a361175b84848461182c565b50505050565b6000600660009054906101000a900473ffffffffffffffffffffffffffffffffffffffff16905081600660006101000a81548173ffffffffffffffffffffffffffffffffffffffff021916908373ffffffffffffffffffffffffffffffffffffffff1602179055508173ffffffffffffffffffffffffffffffffffffffff168173ffffffffffffffffffffffffffffffffffffffff167f8be0079c531659141344cd1fd0a4f28419497f9722a3daafe3b4186f6b6457e060405160405180910390a35050565b505050565b505050565b60008135905061184081612274565b92915050565b6000813590506118558161228b565b92915050565b60006020828403121561186d57600080fd5b600061187b84828501611831565b91505092915050565b6000806040838503121561189757600080fd5b60006118a585828601611831565b92505060206118b685828601611831565b9150509250929050565b6000806000606084860312156118d557600080fd5b60006118e386828701611831565b93505060206118f486828701611831565b925050604061190586828701611846565b9150509250925092565b6000806040838503121561192257600080fd5b600061193085828601611831565b925050602061194185828601611846565b9150509250929050565b60006020828403121561195d57600080fd5b600061196b84828501611846565b91505092915050565b61197d81611e3f565b82525050565b61198c81611e51565b82525050565b61199b81611ea7565b82525050565b60006119ac82611d3f565b6119b68185611d4a565b93506119c6818560208601611eb9565b6119cf81611fab565b840191505092915050565b60006119e7602383611d4a565b91506119f282611fbc565b604082019050919050565b6000611a0a602683611d4a565b9150611a158261200b565b604082019050919050565b6000611a2d602283611d4a565b9150611a388261205a565b604082019050919050565b6000611a50601d83611d4a565b9150611a5b826120a9565b602082019050919050565b6000611a73602683611d4a565b9150611a7e826120d2565b604082019050919050565b6000611a96601283611d4a565b9150611aa182612121565b602082019050919050565b6000611ab9602083611d4a565b9150611ac48261214a565b602082019050919050565b6000611adc602583611d4a565b9150611ae782612173565b604082019050919050565b6000611aff602483611d4a565b9150611b0a826121c2565b604082019050919050565b6000611b22602583611d4a565b9150611b2d82612211565b604082019050919050565b611b4181611e90565b82525050565b611b5081611e9a565b82525050565b6000602082019050611b6b6000830184611974565b92915050565b6000602082019050611b866000830184611983565b92915050565b6000602082019050611ba16000830184611992565b92915050565b60006020820190508181036000830152611bc181846119a1565b905092915050565b60006020820190508181036000830152611be2816119da565b9050919050565b60006020820190508181036000830152611c02816119fd565b9050919050565b60006020820190508181036000830152611c2281611a20565b9050919050565b60006020820190508181036000830152611c4281611a43565b9050919050565b60006020820190508181036000830152611c6281611a66565b9050919050565b60006020820190508181036000830152611c8281611a89565b9050919050565b60006020820190508181036000830152611ca281611aac565b9050919050565b60006020820190508181036000830152611cc281611acf565b9050919050565b60006020820190508181036000830152611ce281611af2565b9050919050565b60006020820190508181036000830152611d0281611b15565b9050919050565b6000602082019050611d1e6000830184611b38565b92915050565b6000602082019050611d396000830184611b47565b92915050565b600081519050919050565b600082825260208201905092915050565b6000611d6682611e90565b9150611d7183611e90565b9250827fffffffffffffffffffffffffffffffffffffffffffffffffffffffffffffffff03821115611da657611da5611f1e565b5b828201905092915050565b6000611dbc82611e90565b9150611dc783611e90565b9250817fffffffffffffffffffffffffffffffffffffffffffffffffffffffffffffffff0483118215151615611e0057611dff611f1e565b5b828202905092915050565b6000611e1682611e90565b9150611e2183611e90565b925082821015611e3457611e33611f1e565b5b828203905092915050565b6000611e4a82611e70565b9050919050565b60008115159050919050565b6000819050611e6b82612260565b919050565b600073ffffffffffffffffffffffffffffffffffffffff82169050919050565b6000819050919050565b600060ff82169050919050565b6000611eb282611e5d565b9050919050565b60005b83811015611ed7578082015181840152602081019050611ebc565b83811115611ee6576000848401525b50505050565b60006002820490506001821680611f0457607f821691505b60208210811415611f1857611f17611f7c565b5b50919050565b7f4e487b7100000000000000000000000000000000000000000000000000000000600052601160045260246000fd5b7f4e487b7100000000000000000000000000000000000000000000000000000000600052602160045260246000fd5b7f4e487b7100000000000000000000000000000000000000000000000000000000600052602260045260246000fd5b6000601f19601f8301169050919050565b7f45524332303a207472616e7366657220746f20746865207a65726f206164647260008201527f6573730000000000000000000000000000000000000000000000000000000000602082015250565b7f4f776e61626c653a206e6577206f776e657220697320746865207a65726f206160008201527f6464726573730000000000000000000000000000000000000000000000000000602082015250565b7f45524332303a20617070726f766520746f20746865207a65726f20616464726560008201527f7373000000000000000000000000000000000000000000000000000000000000602082015250565b7f45524332303a20696e73756666696369656e7420616c6c6f77616e6365000000600082015250565b7f45524332303a207472616e7366657220616d6f756e742065786365656473206260008201527f616c616e63650000000000000000000000000000000000000000000000000000602082015250565b7f496e73756666696369656e742066756e64730000000000000000000000000000600082015250565b7f4f776e61626c653a2063616c6c6572206973206e6f7420746865206f776e6572600082015250565b7f45524332303a207472616e736665722066726f6d20746865207a65726f20616460008201527f6472657373000000000000000000000000000000000000000000000000000000602082015250565b7f45524332303a20617070726f76652066726f6d20746865207a65726f2061646460008201527f7265737300000000000000000000000000000000000000000000000000000000602082015250565b7f45524332303a2064656372656173656420616c6c6f77616e63652062656c6f7760008201527f207a65726f000000000000000000000000000000000000000000000000000000602082015250565b6003811061227157612270611f4d565b5b50565b61227d81611e3f565b811461228857600080fd5b50565b61229481611e90565b811461229f57600080fd5b5056fea2646970667358221220bc1db5e8a99fba8eb8f9834880b81cb522b92187d0482453bc44eafcd17ca46064736f6c63430008030033",
  "linkReferences": {},
  "deployedLinkReferences": {}
}